{
  "contractName": "SafePiggySmartContract",
  "abi": [
    {
      "inputs": [
        {
          "internalType": "contract SpUsdToken",
          "name": "_spUsdToken",
          "type": "address"
        },
        {
          "internalType": "contract SafePiggyToken",
          "name": "_safePiggyToken",
          "type": "address"
        }
      ],
      "stateMutability": "nonpayable",
      "type": "constructor"
    },
    {
      "inputs": [],
      "name": "avaliableSpt",
      "outputs": [
        {
          "internalType": "uint256",
          "name": "",
          "type": "uint256"
        }
      ],
      "stateMutability": "view",
      "type": "function",
      "constant": true
    },
    {
      "inputs": [
        {
          "internalType": "address",
          "name": "",
          "type": "address"
        }
      ],
      "name": "lockedBalance",
      "outputs": [
        {
          "internalType": "uint256",
          "name": "",
          "type": "uint256"
        }
      ],
      "stateMutability": "view",
      "type": "function",
      "constant": true
    },
    {
      "inputs": [
        {
          "internalType": "uint256",
          "name": "",
          "type": "uint256"
        }
      ],
      "name": "lockers",
      "outputs": [
        {
          "internalType": "address",
          "name": "",
          "type": "address"
        }
      ],
      "stateMutability": "view",
      "type": "function",
      "constant": true
    },
    {
      "inputs": [],
      "name": "myAddress",
      "outputs": [
        {
          "internalType": "address",
          "name": "",
          "type": "address"
        }
      ],
      "stateMutability": "view",
      "type": "function",
      "constant": true
    },
    {
      "inputs": [],
      "name": "name",
      "outputs": [
        {
          "internalType": "string",
          "name": "",
          "type": "string"
        }
      ],
      "stateMutability": "view",
      "type": "function",
      "constant": true
    },
    {
      "inputs": [],
      "name": "owner",
      "outputs": [
        {
          "internalType": "address",
          "name": "",
          "type": "address"
        }
      ],
      "stateMutability": "view",
      "type": "function",
      "constant": true
    },
    {
      "inputs": [],
      "name": "safePiggyToken",
      "outputs": [
        {
          "internalType": "contract SafePiggyToken",
          "name": "",
          "type": "address"
        }
      ],
      "stateMutability": "view",
      "type": "function",
      "constant": true
    },
    {
      "inputs": [
        {
          "internalType": "address",
          "name": "",
          "type": "address"
        }
      ],
      "name": "savedBalance",
      "outputs": [
        {
          "internalType": "uint256",
          "name": "spUsdSaved",
          "type": "uint256"
        },
        {
          "internalType": "uint256",
          "name": "timeStamp",
          "type": "uint256"
        },
        {
          "components": [
            {
              "internalType": "uint256",
              "name": "spUsdLocked",
              "type": "uint256"
            },
            {
              "internalType": "uint256",
              "name": "timeStamp",
              "type": "uint256"
            }
          ],
          "internalType": "struct SafePiggySmartContract.LockedBalance",
          "name": "lockedBalance",
          "type": "tuple"
        },
        {
          "internalType": "uint256",
          "name": "sptEarned",
          "type": "uint256"
        }
      ],
      "stateMutability": "view",
      "type": "function",
      "constant": true
    },
    {
      "inputs": [
        {
          "internalType": "uint256",
          "name": "",
          "type": "uint256"
        }
      ],
      "name": "savers",
      "outputs": [
        {
          "internalType": "address",
          "name": "",
          "type": "address"
        }
      ],
      "stateMutability": "view",
      "type": "function",
      "constant": true
    },
    {
      "inputs": [],
      "name": "spUsdToken",
      "outputs": [
        {
          "internalType": "contract SpUsdToken",
          "name": "",
          "type": "address"
        }
      ],
      "stateMutability": "view",
      "type": "function",
      "constant": true
    },
    {
      "inputs": [],
      "name": "totalDistributedSpt",
      "outputs": [
        {
          "internalType": "uint256",
          "name": "",
          "type": "uint256"
        }
      ],
      "stateMutability": "view",
      "type": "function",
      "constant": true
    },
    {
      "inputs": [],
      "name": "totalLockedSpUsd",
      "outputs": [
        {
          "internalType": "uint256",
          "name": "",
          "type": "uint256"
        }
      ],
      "stateMutability": "view",
      "type": "function",
      "constant": true
    },
    {
      "inputs": [],
      "name": "totalSavedSpUsd",
      "outputs": [
        {
          "internalType": "uint256",
          "name": "",
          "type": "uint256"
        }
      ],
      "stateMutability": "view",
      "type": "function",
      "constant": true
    },
    {
      "inputs": [
        {
          "internalType": "address",
          "name": "",
          "type": "address"
        }
      ],
      "name": "userHasLocked",
      "outputs": [
        {
          "internalType": "bool",
          "name": "",
          "type": "bool"
        }
      ],
      "stateMutability": "view",
      "type": "function",
      "constant": true
    },
    {
      "inputs": [
        {
          "internalType": "address",
          "name": "",
          "type": "address"
        }
      ],
      "name": "userHasSaved",
      "outputs": [
        {
          "internalType": "bool",
          "name": "",
          "type": "bool"
        }
      ],
      "stateMutability": "view",
      "type": "function",
      "constant": true
    },
    {
      "inputs": [
        {
          "internalType": "address",
          "name": "",
          "type": "address"
        }
      ],
      "name": "userIsLocking",
      "outputs": [
        {
          "internalType": "bool",
          "name": "",
          "type": "bool"
        }
      ],
      "stateMutability": "view",
      "type": "function",
      "constant": true
    },
    {
      "inputs": [
        {
          "internalType": "address",
          "name": "",
          "type": "address"
        }
      ],
      "name": "userIsSaving",
      "outputs": [
        {
          "internalType": "bool",
          "name": "",
          "type": "bool"
        }
      ],
      "stateMutability": "view",
      "type": "function",
      "constant": true
    },
    {
      "inputs": [],
      "name": "withdrawnEarnedToken",
      "outputs": [
        {
          "internalType": "uint256",
          "name": "",
          "type": "uint256"
        }
      ],
      "stateMutability": "view",
      "type": "function",
      "constant": true
    },
    {
      "inputs": [
        {
          "internalType": "uint256",
          "name": "_spUsdTokenSaved",
          "type": "uint256"
        }
      ],
      "name": "calculateInterest",
      "outputs": [
        {
          "internalType": "uint256",
          "name": "",
          "type": "uint256"
        }
      ],
      "stateMutability": "nonpayable",
      "type": "function"
    },
    {
      "inputs": [
        {
          "internalType": "uint256",
          "name": "_amount",
          "type": "uint256"
        }
      ],
      "name": "saveSpUsdToken",
      "outputs": [],
      "stateMutability": "nonpayable",
      "type": "function"
    },
    {
      "inputs": [
        {
          "internalType": "uint256",
          "name": "_amount",
          "type": "uint256"
        }
      ],
      "name": "withdrawSavedToken",
      "outputs": [],
      "stateMutability": "nonpayable",
      "type": "function"
    },
    {
      "inputs": [
        {
          "internalType": "uint256",
          "name": "_amount",
          "type": "uint256"
        }
      ],
      "name": "stakeUsdToken",
      "outputs": [],
      "stateMutability": "nonpayable",
      "type": "function"
    },
    {
      "inputs": [
        {
          "internalType": "uint256",
          "name": "_amount",
          "type": "uint256"
        }
      ],
      "name": "unStakeUsdToken",
      "outputs": [],
      "stateMutability": "nonpayable",
      "type": "function"
    },
    {
      "inputs": [],
      "name": "withdrawEarnedToken",
      "outputs": [],
      "stateMutability": "nonpayable",
      "type": "function"
    },
    {
      "inputs": [
        {
          "internalType": "address",
          "name": "_address",
          "type": "address"
        }
      ],
      "name": "getUserSavedUsd",
      "outputs": [
        {
          "internalType": "uint256",
          "name": "",
          "type": "uint256"
        }
      ],
      "stateMutability": "view",
      "type": "function",
      "constant": true
    },
    {
      "inputs": [
        {
          "internalType": "address",
          "name": "_address",
          "type": "address"
        }
      ],
      "name": "getUserLockedUsd",
      "outputs": [
        {
          "internalType": "uint256",
          "name": "",
          "type": "uint256"
        }
      ],
      "stateMutability": "view",
      "type": "function",
      "constant": true
    },
    {
      "inputs": [
        {
          "internalType": "address",
          "name": "_address",
          "type": "address"
        }
      ],
      "name": "getUserEarnedSpt",
      "outputs": [
        {
          "internalType": "uint256",
          "name": "",
          "type": "uint256"
        }
      ],
      "stateMutability": "view",
      "type": "function",
      "constant": true
    },
    {
      "inputs": [],
      "name": "getUserUsdBalance",
      "outputs": [
        {
          "internalType": "uint256",
          "name": "",
          "type": "uint256"
        }
      ],
      "stateMutability": "view",
      "type": "function",
      "constant": true
    },
    {
      "inputs": [
        {
          "internalType": "address",
          "name": "_account",
          "type": "address"
        },
        {
          "internalType": "uint256",
          "name": "amount",
          "type": "uint256"
        }
      ],
      "name": "transferSpUsd",
      "outputs": [
        {
          "internalType": "bool",
          "name": "",
          "type": "bool"
        }
      ],
      "stateMutability": "nonpayable",
      "type": "function"
    },
    {
      "inputs": [
        {
          "internalType": "address",
          "name": "spender",
          "type": "address"
        },
        {
          "internalType": "uint256",
          "name": "amount",
          "type": "uint256"
        }
      ],
      "name": "approveSpusd",
      "outputs": [
        {
          "internalType": "bool",
          "name": "",
          "type": "bool"
        }
      ],
      "stateMutability": "nonpayable",
      "type": "function"
    }
  ],
  "bytecode": "0x60806040526040518060400160405280600f81526020017f5361666520506967677920446170700000000000000000000000000000000000815250600090805190602001906200005192919062000191565b5030601160006101000a81548173ffffffffffffffffffffffffffffffffffffffff021916908373ffffffffffffffffffffffffffffffffffffffff160217905550348015620000a057600080fd5b50604051620022d1380380620022d18339818101604052810190620000c691906200026f565b81600260006101000a81548173ffffffffffffffffffffffffffffffffffffffff021916908373ffffffffffffffffffffffffffffffffffffffff16021790555080600360006101000a81548173ffffffffffffffffffffffffffffffffffffffff021916908373ffffffffffffffffffffffffffffffffffffffff16021790555033600160006101000a81548173ffffffffffffffffffffffffffffffffffffffff021916908373ffffffffffffffffffffffffffffffffffffffff1602179055505050620003b0565b8280546200019f9062000312565b90600052602060002090601f016020900481019282620001c357600085556200020f565b82601f10620001de57805160ff19168380011785556200020f565b828001600101855582156200020f579182015b828111156200020e578251825591602001919060010190620001f1565b5b5090506200021e919062000222565b5090565b5b808211156200023d57600081600090555060010162000223565b5090565b60008151905062000252816200037c565b92915050565b600081519050620002698162000396565b92915050565b6000806040838503121562000289576200028862000377565b5b6000620002998582860162000258565b9250506020620002ac8582860162000241565b9150509250929050565b6000620002c382620002f2565b9050919050565b6000620002d782620002b6565b9050919050565b6000620002eb82620002b6565b9050919050565b600073ffffffffffffffffffffffffffffffffffffffff82169050919050565b600060028204905060018216806200032b57607f821691505b6020821081141562000342576200034162000348565b5b50919050565b7f4e487b7100000000000000000000000000000000000000000000000000000000600052602260045260246000fd5b600080fd5b6200038781620002ca565b81146200039357600080fd5b50565b620003a181620002de565b8114620003ad57600080fd5b50565b611f1180620003c06000396000f3fe608060405234801561001057600080fd5b50600436106101da5760003560e01c80637e70966311610104578063c9152cc0116100a2578063d9c6f87511610071578063d9c6f875146105aa578063dd51fd41146105c8578063e35c23ef146105f8578063e6dcca4a14610628576101da565b8063c9152cc014610510578063d29031e614610540578063d33301bc1461055e578063d75504c41461057a576101da565b80639ae697bf116100de5780639ae697bf14610462578063a57475e014610492578063b564b91c146104c2578063bb8eb1e3146104e0576101da565b80637e709663146103e1578063809aab92146104145780638da5cb5b14610444576101da565b806326b85ee11161017c578063564a5ad91161014b578063564a5ad914610359578063579977ce146103895780635f9e29bd146103a757806360d04c7d146103c3576101da565b806326b85ee1146102bd5780633cab5640146102db57806341bd72be1461030b578063465f01a514610329576101da565b80630fa0ca62116101b85780630fa0ca621461023757806317811cd6146102535780631f82d6481461026f57806322670eec1461029f576101da565b806304289856146101df57806306fdde031461020f5780630a1901b71461022d575b600080fd5b6101f960048036038101906101f491906117fa565b610646565b6040516102069190611bac565b60405180910390f35b610217610692565b6040516102249190611b2a565b60405180910390f35b610235610720565b005b610251600480360381019061024c9190611894565b61083d565b005b61026d60048036038101906102689190611894565b610a1c565b005b61028960048036038101906102849190611827565b610bd5565b6040516102969190611ad9565b60405180910390f35b6102a7610c90565b6040516102b49190611bac565b60405180910390f35b6102c5610c96565b6040516102d29190611a19565b60405180910390f35b6102f560048036038101906102f091906117fa565b610cbc565b6040516103029190611bac565b60405180910390f35b610313610d08565b6040516103209190611bac565b60405180910390f35b610343600480360381019061033e91906117fa565b610d0e565b6040516103509190611ad9565b60405180910390f35b610373600480360381019061036e91906117fa565b610d2e565b6040516103809190611ad9565b60405180910390f35b610391610d4e565b60405161039e9190611b0f565b60405180910390f35b6103c160048036038101906103bc9190611894565b610d74565b005b6103cb610f90565b6040516103d89190611bac565b60405180910390f35b6103fb60048036038101906103f691906117fa565b610f96565b60405161040b9493929190611bc7565b60405180910390f35b61042e60048036038101906104299190611894565b610fe4565b60405161043b9190611a19565b60405180910390f35b61044c611023565b6040516104599190611a19565b60405180910390f35b61047c600480360381019061047791906117fa565b611049565b6040516104899190611bac565b60405180910390f35b6104ac60048036038101906104a79190611894565b611061565b6040516104b99190611bac565b60405180910390f35b6104ca611068565b6040516104d79190611bac565b60405180910390f35b6104fa60048036038101906104f591906117fa565b61106e565b6040516105079190611bac565b60405180910390f35b61052a600480360381019061052591906117fa565b6110bd565b6040516105379190611ad9565b60405180910390f35b6105486110dd565b6040516105559190611bac565b60405180910390f35b61057860048036038101906105739190611894565b61118f565b005b610594600480360381019061058f91906117fa565b61163e565b6040516105a19190611ad9565b60405180910390f35b6105b261165e565b6040516105bf9190611af4565b60405180910390f35b6105e260048036038101906105dd9190611894565b611684565b6040516105ef9190611a19565b60405180910390f35b610612600480360381019061060d9190611827565b6116c3565b60405161061f9190611ad9565b60405180910390f35b6106306117a0565b60405161063d9190611bac565b60405180910390f35b6000600b60008373ffffffffffffffffffffffffffffffffffffffff1673ffffffffffffffffffffffffffffffffffffffff168152602001908152602001600020600001549050919050565b6000805461069f90611d75565b80601f01602080910402602001604051908101604052809291908181526020018280546106cb90611d75565b80156107185780601f106106ed57610100808354040283529160200191610718565b820191906000526020600020905b8154815290600101906020018083116106fb57829003601f168201915b505050505081565b600061072b33610cbc565b90506127108111610771576040517f08c379a000000000000000000000000000000000000000000000000000000000815260040161076890611b6c565b60405180910390fd5b600360009054906101000a900473ffffffffffffffffffffffffffffffffffffffff1673ffffffffffffffffffffffffffffffffffffffff1663a9059cbb33836040518363ffffffff1660e01b81526004016107ce929190611ab0565b602060405180830381600087803b1580156107e857600080fd5b505af11580156107fc573d6000803e3d6000fd5b505050506040513d601f19601f820116820180604052508101906108209190611867565b5080600960008282546108339190611c28565b9250508190555050565b600061084833610646565b90508181101561088d576040517f08c379a000000000000000000000000000000000000000000000000000000000815260040161088490611b4c565b60405180910390fd5b600260009054906101000a900473ffffffffffffffffffffffffffffffffffffffff1673ffffffffffffffffffffffffffffffffffffffff1663a9059cbb33836040518363ffffffff1660e01b81526004016108ea929190611ab0565b602060405180830381600087803b15801561090457600080fd5b505af1158015610918573d6000803e3d6000fd5b505050506040513d601f19601f8201168201806040525081019061093c9190611867565b5081600b60003373ffffffffffffffffffffffffffffffffffffffff1673ffffffffffffffffffffffffffffffffffffffff168152602001908152602001600020600001600082825461098f9190611c7e565b9250508190555081600660008282546109a89190611c7e565b9250508190555060006109ba33610646565b11610a18576000600e60003373ffffffffffffffffffffffffffffffffffffffff1673ffffffffffffffffffffffffffffffffffffffff16815260200190815260200160002060006101000a81548160ff0219169083151502179055505b5050565b6000610a273361106e565b905081811015610a6c576040517f08c379a0000000000000000000000000000000000000000000000000000000008152600401610a6390611b4c565b60405180910390fd5b81600b60003373ffffffffffffffffffffffffffffffffffffffff1673ffffffffffffffffffffffffffffffffffffffff1681526020019081526020016000206000016000828254610abe9190611c28565b9250508190555081600b60003373ffffffffffffffffffffffffffffffffffffffff1673ffffffffffffffffffffffffffffffffffffffff1681526020019081526020016000206002016000016000828254610b1a9190611c7e565b925050819055506000600f60003373ffffffffffffffffffffffffffffffffffffffff1673ffffffffffffffffffffffffffffffffffffffff16815260200190815260200160002060006101000a81548160ff0219169083151502179055506000601060003373ffffffffffffffffffffffffffffffffffffffff1673ffffffffffffffffffffffffffffffffffffffff16815260200190815260200160002060006101000a81548160ff0219169083151502179055505050565b6000600260009054906101000a900473ffffffffffffffffffffffffffffffffffffffff1673ffffffffffffffffffffffffffffffffffffffff1663560706da3385856040518463ffffffff1660e01b8152600401610c3693929190611a79565b602060405180830381600087803b158015610c5057600080fd5b505af1158015610c64573d6000803e3d6000fd5b505050506040513d601f19601f82011682018060405250810190610c889190611867565b905092915050565b60065481565b601160009054906101000a900473ffffffffffffffffffffffffffffffffffffffff1681565b6000600b60008373ffffffffffffffffffffffffffffffffffffffff1673ffffffffffffffffffffffffffffffffffffffff168152602001908152602001600020600401549050919050565b60085481565b60106020528060005260406000206000915054906101000a900460ff1681565b600f6020528060005260406000206000915054906101000a900460ff1681565b600260009054906101000a900473ffffffffffffffffffffffffffffffffffffffff1681565b6000610d7f33610646565b905081811015610dc4576040517f08c379a0000000000000000000000000000000000000000000000000000000008152600401610dbb90611b4c565b60405180910390fd5b81600b60003373ffffffffffffffffffffffffffffffffffffffff1673ffffffffffffffffffffffffffffffffffffffff1681526020019081526020016000206000016000828254610e169190611c7e565b9250508190555081600b60003373ffffffffffffffffffffffffffffffffffffffff1673ffffffffffffffffffffffffffffffffffffffff1681526020019081526020016000206002016000016000828254610e729190611c28565b925050819055506001600f60003373ffffffffffffffffffffffffffffffffffffffff1673ffffffffffffffffffffffffffffffffffffffff16815260200190815260200160002060006101000a81548160ff0219169083151502179055506001601060003373ffffffffffffffffffffffffffffffffffffffff1673ffffffffffffffffffffffffffffffffffffffff16815260200190815260200160002060006101000a81548160ff0219169083151502179055506005339080600181540180825580915050600190039060005260206000200160009091909190916101000a81548173ffffffffffffffffffffffffffffffffffffffff021916908373ffffffffffffffffffffffffffffffffffffffff1602179055505050565b60075481565b600b6020528060005260406000206000915090508060000154908060010154908060020160405180604001604052908160008201548152602001600182015481525050908060040154905084565b60058181548110610ff457600080fd5b906000526020600020016000915054906101000a900473ffffffffffffffffffffffffffffffffffffffff1681565b600160009054906101000a900473ffffffffffffffffffffffffffffffffffffffff1681565b600c6020528060005260406000206000915090505481565b6000919050565b600a5481565b6000600b60008373ffffffffffffffffffffffffffffffffffffffff1673ffffffffffffffffffffffffffffffffffffffff168152602001908152602001600020600201600001549050919050565b600d6020528060005260406000206000915054906101000a900460ff1681565b6000600260009054906101000a900473ffffffffffffffffffffffffffffffffffffffff1673ffffffffffffffffffffffffffffffffffffffff166370a08231336040518263ffffffff1660e01b815260040161113a9190611a19565b60206040518083038186803b15801561115257600080fd5b505afa158015611166573d6000803e3d6000fd5b505050506040513d601f19601f8201168201806040525081019061118a91906118c1565b905090565b338160008111801561124b575080600260009054906101000a900473ffffffffffffffffffffffffffffffffffffffff1673ffffffffffffffffffffffffffffffffffffffff166370a08231846040518263ffffffff1660e01b81526004016111f89190611a19565b60206040518083038186803b15801561121057600080fd5b505afa158015611224573d6000803e3d6000fd5b505050506040513d601f19601f8201168201806040525081019061124891906118c1565b10155b61128a576040517f08c379a000000000000000000000000000000000000000000000000000000000815260040161128190611b8c565b60405180910390fd5b600260009054906101000a900473ffffffffffffffffffffffffffffffffffffffff1673ffffffffffffffffffffffffffffffffffffffff16632b1fac7c600160009054906101000a900473ffffffffffffffffffffffffffffffffffffffff163330876040518563ffffffff1660e01b815260040161130d9493929190611a34565b602060405180830381600087803b15801561132757600080fd5b505af115801561133b573d6000803e3d6000fd5b505050506040513d601f19601f8201168201806040525081019061135f9190611867565b5060008361136c33610646565b6113769190611c28565b90506040518060800160405280828152602001428152602001600b60003373ffffffffffffffffffffffffffffffffffffffff1673ffffffffffffffffffffffffffffffffffffffff168152602001908152602001600020600201604051806040016040529081600082015481526020016001820154815250508152602001600b60003373ffffffffffffffffffffffffffffffffffffffff1673ffffffffffffffffffffffffffffffffffffffff16815260200190815260200160002060040154815250600b60003373ffffffffffffffffffffffffffffffffffffffff1673ffffffffffffffffffffffffffffffffffffffff1681526020019081526020016000206000820151816000015560208201518160010155604082015181600201600082015181600001556020820151816001015550506060820151816004015590505083600660008282546114cc9190611c28565b92505081905550600d60003373ffffffffffffffffffffffffffffffffffffffff1673ffffffffffffffffffffffffffffffffffffffff16815260200190815260200160002060009054906101000a900460ff16611638576001600d60003373ffffffffffffffffffffffffffffffffffffffff1673ffffffffffffffffffffffffffffffffffffffff16815260200190815260200160002060006101000a81548160ff0219169083151502179055506001600e60003373ffffffffffffffffffffffffffffffffffffffff1673ffffffffffffffffffffffffffffffffffffffff16815260200190815260200160002060006101000a81548160ff0219169083151502179055506004339080600181540180825580915050600190039060005260206000200160009091909190916101000a81548173ffffffffffffffffffffffffffffffffffffffff021916908373ffffffffffffffffffffffffffffffffffffffff1602179055505b50505050565b600e6020528060005260406000206000915054906101000a900460ff1681565b600360009054906101000a900473ffffffffffffffffffffffffffffffffffffffff1681565b6004818154811061169457600080fd5b906000526020600020016000915054906101000a900473ffffffffffffffffffffffffffffffffffffffff1681565b6000600260009054906101000a900473ffffffffffffffffffffffffffffffffffffffff1673ffffffffffffffffffffffffffffffffffffffff1663d7269d53600160009054906101000a900473ffffffffffffffffffffffffffffffffffffffff1685856040518463ffffffff1660e01b815260040161174693929190611a79565b602060405180830381600087803b15801561176057600080fd5b505af1158015611774573d6000803e3d6000fd5b505050506040513d601f19601f820116820180604052508101906117989190611867565b905092915050565b60095481565b6000813590506117b581611e96565b92915050565b6000815190506117ca81611ead565b92915050565b6000813590506117df81611ec4565b92915050565b6000815190506117f481611ec4565b92915050565b6000602082840312156118105761180f611e05565b5b600061181e848285016117a6565b91505092915050565b6000806040838503121561183e5761183d611e05565b5b600061184c858286016117a6565b925050602061185d858286016117d0565b9150509250929050565b60006020828403121561187d5761187c611e05565b5b600061188b848285016117bb565b91505092915050565b6000602082840312156118aa576118a9611e05565b5b60006118b8848285016117d0565b91505092915050565b6000602082840312156118d7576118d6611e05565b5b60006118e5848285016117e5565b91505092915050565b6118f781611cb2565b82525050565b61190681611cc4565b82525050565b61191581611cfa565b82525050565b61192481611d0c565b82525050565b600061193582611c0c565b61193f8185611c17565b935061194f818560208601611d42565b61195881611e0a565b840191505092915050565b6000611970601483611c17565b915061197b82611e1b565b602082019050919050565b6000611993601c83611c17565b915061199e82611e44565b602082019050919050565b60006119b6601d83611c17565b91506119c182611e6d565b602082019050919050565b6040820160008201516119e260008501826119fb565b5060208201516119f560208501826119fb565b50505050565b611a0481611cf0565b82525050565b611a1381611cf0565b82525050565b6000602082019050611a2e60008301846118ee565b92915050565b6000608082019050611a4960008301876118ee565b611a5660208301866118ee565b611a6360408301856118ee565b611a706060830184611a0a565b95945050505050565b6000606082019050611a8e60008301866118ee565b611a9b60208301856118ee565b611aa86040830184611a0a565b949350505050565b6000604082019050611ac560008301856118ee565b611ad26020830184611a0a565b9392505050565b6000602082019050611aee60008301846118fd565b92915050565b6000602082019050611b09600083018461190c565b92915050565b6000602082019050611b24600083018461191b565b92915050565b60006020820190508181036000830152611b44818461192a565b905092915050565b60006020820190508181036000830152611b6581611963565b9050919050565b60006020820190508181036000830152611b8581611986565b9050919050565b60006020820190508181036000830152611ba5816119a9565b9050919050565b6000602082019050611bc16000830184611a0a565b92915050565b600060a082019050611bdc6000830187611a0a565b611be96020830186611a0a565b611bf660408301856119cc565b611c036080830184611a0a565b95945050505050565b600081519050919050565b600082825260208201905092915050565b6000611c3382611cf0565b9150611c3e83611cf0565b9250827fffffffffffffffffffffffffffffffffffffffffffffffffffffffffffffffff03821115611c7357611c72611da7565b5b828201905092915050565b6000611c8982611cf0565b9150611c9483611cf0565b925082821015611ca757611ca6611da7565b5b828203905092915050565b6000611cbd82611cd0565b9050919050565b60008115159050919050565b600073ffffffffffffffffffffffffffffffffffffffff82169050919050565b6000819050919050565b6000611d0582611d1e565b9050919050565b6000611d1782611d1e565b9050919050565b6000611d2982611d30565b9050919050565b6000611d3b82611cd0565b9050919050565b60005b83811015611d60578082015181840152602081019050611d45565b83811115611d6f576000848401525b50505050565b60006002820490506001821680611d8d57607f821691505b60208210811415611da157611da0611dd6565b5b50919050565b7f4e487b7100000000000000000000000000000000000000000000000000000000600052601160045260246000fd5b7f4e487b7100000000000000000000000000000000000000000000000000000000600052602260045260246000fd5b600080fd5b6000601f19601f8301169050919050565b7f496e73756666696369656e742062616c616e6365000000000000000000000000600082015250565b7f596f7520646f6e2774206861766520656e6f75676820746f6b656e7300000000600082015250565b7f4e6f7420656e6f756768205370557364546f6b656e20746f2073617665000000600082015250565b611e9f81611cb2565b8114611eaa57600080fd5b50565b611eb681611cc4565b8114611ec157600080fd5b50565b611ecd81611cf0565b8114611ed857600080fd5b5056fea264697066735822122068aad931868adfd3f2eb27aa4ed9b50e412b7f56442a0d4a5c9c06d22b62075b64736f6c63430008070033",
  "immutableReferences": {},
  "source": "// SPDX-License-Identifier: GPL-3.0\n\npragma solidity >=0.7.0 <0.9.0;\n\nimport './SpUsdToken.sol';\nimport './SafePiggyToken.sol';\n\n\ncontract  SafePiggySmartContract {\n    \n    string public name = \"Safe Piggy Dapp\";\n    address public owner;\n    \n    SpUsdToken public spUsdToken;\n    SafePiggyToken public safePiggyToken;\n    \n    address[] public savers;\n    address[] public lockers;\n    \n    uint public totalSavedSpUsd;\n    uint public totalLockedSpUsd;\n    uint public totalDistributedSpt;\n    uint public withdrawnEarnedToken;\n    uint public avaliableSpt;\n    \n    \n    struct AccountBalance{\n        uint spUsdSaved;\n        uint timeStamp;\n        LockedBalance lockedBalance;\n        uint sptEarned;\n    }\n    \n    struct LockedBalance{\n        uint spUsdLocked;\n        uint timeStamp;\n    }\n    \n    mapping(address => AccountBalance) public savedBalance;\n    mapping(address => uint) public lockedBalance;\n    mapping(address => bool) public userHasSaved;\n    mapping(address => bool) public userIsSaving;\n    mapping(address => bool) public userHasLocked;\n    mapping(address => bool) public userIsLocking;\n    \n    \n    enum LockingPlan { COPPER, BRONZE, SILVER, GOLD, DIAMOND, PLATINUM }    \n    \n    \n    \n    constructor( SpUsdToken  _spUsdToken , SafePiggyToken _safePiggyToken) {\n        spUsdToken = _spUsdToken;\n        safePiggyToken = _safePiggyToken;\n        owner = msg.sender;\n        \n    }\n    \n     modifier isOwner {\n      require(msg.sender == owner, \"Only the owner is allowed to call this function\");\n      _;\n     }\n    \n    // Check if the user has enough SpUsdToken to save\n    modifier hasEnoughSpUsd(address _address, uint _amount){\n        require(_amount > 0 &&  spUsdToken.balanceOf(_address) >= _amount, \"Not enough SpUsdToken to save\");\n        _;\n    }\n    \n    \n    //Calculate Interest to be awarded a user for the amount saved\n    function calculateInterest(uint _spUsdTokenSaved ) public returns (uint) {\n        \n        \n    }\n    \n    // Save SpUsdToken tokens\n    function saveSpUsdToken(uint _amount) public  hasEnoughSpUsd(msg.sender, _amount) {\n        \n      /*\n        Create user account struct\n        Transfer money from user account to contract address (User must approve this)\n        Add user account struct to saved balance mapping\n        Increase totalSavedSpUsd by amount saved by user\n        Add user address to savers array\n      */\n    \n     spUsdToken.transferFromAddress(owner, msg.sender, address(this), _amount);\n      \n      uint newSavedUsdToken = getUserSavedUsd(msg.sender) + _amount;\n      savedBalance[msg.sender] = AccountBalance(newSavedUsdToken, block.timestamp, savedBalance[msg.sender].lockedBalance, savedBalance[msg.sender].sptEarned);\n      totalSavedSpUsd += _amount;\n      \n      if(!userHasSaved[msg.sender]){\n        userHasSaved[msg.sender] = true;\n        userIsSaving[msg.sender] = true;\n        savers.push(msg.sender);\n      }\n     \n    }\n    \n    \n    //Withdraw saved SpUsdTokens\n    function withdrawSavedToken(uint _amount) public {\n        \n        uint userSavedUsd = getUserSavedUsd(msg.sender);\n        \n        require (userSavedUsd >= _amount, \"Insufficient balance\");\n        \n        spUsdToken.transfer(msg.sender, userSavedUsd);\n        \n        savedBalance[msg.sender].spUsdSaved -= _amount;\n         \n        totalSavedSpUsd -= _amount;\n         \n        if(getUserSavedUsd(msg.sender) <= 0){\n             userIsSaving[msg.sender] = false;\n         }\n    \n    }\n    \n    \n    \n    //User Stakes some of part of their saved coins\n    function stakeUsdToken(uint _amount) public  {\n        \n        uint userSavedUsd = getUserSavedUsd(msg.sender);\n        \n        require(userSavedUsd >= _amount, \"Insufficient balance\");\n        \n        savedBalance[msg.sender].spUsdSaved -= _amount;\n        savedBalance[msg.sender].lockedBalance.spUsdLocked += _amount;\n        userHasLocked[msg.sender] = true;\n        userIsLocking[msg.sender] = true;\n        lockers.push(msg.sender);\n        \n    }\n    \n    \n    \n    address public myAddress = address(this);\n    \n    \n    \n    function unStakeUsdToken(uint _amount) public {\n        \n        uint userLockedUsd = getUserLockedUsd(msg.sender);\n        \n        require(userLockedUsd >= _amount, \"Insufficient balance\");\n        \n        savedBalance[msg.sender].spUsdSaved += _amount;\n        savedBalance[msg.sender].lockedBalance.spUsdLocked -= _amount;\n        \n        userHasLocked[msg.sender] = false;\n        userIsLocking[msg.sender] = false;\n        \n    }\n    \n    \n    function withdrawEarnedToken() public {\n        \n    //TODO (Require time staked, plan and time to withdraw)\n     \n     uint earnedSptToken = getUserEarnedSpt(msg.sender);\n    \n     require(earnedSptToken > 10000, \"You don't have enough tokens\");\n    \n     safePiggyToken.transfer(msg.sender, earnedSptToken);\n    \n     withdrawnEarnedToken += earnedSptToken;\n        \n    }\n    \n    \n    function getUserSavedUsd(address _address) public view returns (uint){\n       return savedBalance[_address].spUsdSaved;\n    }\n    \n    function getUserLockedUsd(address _address) public view returns (uint){\n       return savedBalance[_address].lockedBalance.spUsdLocked;\n    }\n    \n    function getUserEarnedSpt(address _address) public view returns (uint){\n       return savedBalance[_address].sptEarned;\n    }\n    \n    function getUserUsdBalance() public view returns (uint){\n       return spUsdToken.balanceOf(msg.sender);\n    }\n    \n    \n    function transferSpUsd(address _account, uint amount) public returns (bool) {\n        return  spUsdToken.transferAddress(owner, _account, amount);\n    }\n    \n    function approveSpusd(address spender, uint256 amount) public returns (bool) {\n        return spUsdToken.approveAddress(msg.sender,spender, amount );\n    }\n  \n    \n    \n    \n}",
  "sourcePath": "/Users/Oladapo/VsCodeProjects/SafePiggy/contracts/SafePiggySmartContract.sol",
  "compiler": {
    "name": "solc",
    "version": "0.8.7+commit.e28d00a7.Emscripten.clang"
  },
  "schemaVersion": "3.4.2",
  "updatedAt": "2021-09-15T11:11:07.050Z",
  "networkType": "ethereum",
  "devdoc": {
    "kind": "dev",
    "methods": {},
    "version": 1
  },
  "userdoc": {
    "kind": "user",
    "methods": {},
    "version": 1
  }
}